S01500005430365F66696E616C436F64652E7372656371
S11300000C9464000C9437040C9464040C948C00D9
S11300100C948C000C948C000C948C000C94DB03DA
S11300200C948C000C948C000C948C000C948C001C
S11300300C948C000C948C000C948C000C948C000C
S11300400C9491040C948C000C94F2010C942A02EC
S11300500C948C000C948C000C948C000C948C00EC
S11300600C948C000C948C00020000000800020127
S11300700000030407000000000000000001020467
S11300800810204080010204081020010204081016
S1130090200404040404040404020202020202030D
S11300A003030303030000000023002600290000CB
S11300B0000000250028002B000000000024002779
S11300C0002A00005A02CA0211241FBECFEFD8E052
S11300D0DEBFCDBF11E0A0E0B1E0E0E6F0E102C098
S11300E005900D92A232B107D9F721E0A2E2B1E066
S11300F001C01D92A93DB207E1F710E0C4E6D0E0CB
S113010004C02197FE010E942808C236D107C9F70E
S11301100E94D6020C942E080C940000CF93DF9317
S1130120C4E0D1E061E088810E94A10560E088819B
S11301300E94E005DF91CF910895CF93C82F64E129
S113014070E080E090E00E94010561E08C2F0E9445
S1130150A10560E08C2F0E94E0058AE090E00E94F7
S11301602D0561E08C2F0E94E00584E190E00E945F
S11301702D0560E08C2F0E94E005CF910895CF9368
S1130180C82F0E949D0060E08C2F0E94A10520E4EE
S113019032E44FE050E061E08C2F0E941106992375
S11301A024F46F5F7F4F8F4F9F4F95958795779579
S11301B067950E947A0723E333E34BEE51E40E94F0
S11301C0D0060E944207CF9108950F931F93809108
S11301D00801909109010E94BF0020910201309111
S11301E003018901330F220B330B60177107820758
S11301F093079CF080910601909107010E94BF0033
S113020020910001309101018901330F220B330B3E
S1130210601771078207930734F461E08091040149
S11302200E94E00505C060E0809104010E94E005A1
S11302301F910F910895FC01918D228D892F90E0DB
S1130240805C9F4F821B91098F7399270895FC014D
S1130250918D828D981731F0828DE80FF11D858D77
S113026090E008958FEF9FEF0895FC01918D828DAA
S1130270981761F0828DDF01A80FB11D5D968C91F6
S1130280928D9F5F9F73928F90E008958FEF9FEF01
S1130290089580E592E0892B49F080E090E0892B75
S11302A029F00E94500281110E9400000895FC016F
S11302B0848DDF01A80FB11DA35ABF4F8C91248DEB
S11302C030E02F5F3F4F2F733078332334F42150C5
S11302D03109206C3F6F2F5F3F4F248FA689B78968
S11302E08C93A089B1898C9180648C93938D848D37
S11302F0981306C00288F389E02D80818F7D808366
S11303000895CF93DF93EC01888D81110FC018C03D
S11303100FB607FC0DC0908195FF0AC0A889B98962
S11303208C9185FF05C0CE010E945701EA89FB89A3
S1130330908195FDEDCFA889B9898C9186FFE8CF8E
S1130340DF91CF9108950F931F93CF93DF93FC0117
S1130350938D848D981324C0A089B1898C9185FDD7
S113036031C01EC00FB607FC08C0E889F989808136
S113037085FF03C0CE010E9457019C8D091791F39C
S11303808B8DFE01E80FF11DE35AFF4F10830B8F95
S1130390EA89FB8980818062808381E0888F1BC029
S11303A0238D30E02F5F3F4F2F733078332334F4A5
S11303B021503109206C3F6F2F5F3F4F162FEF0103
S11303C0022FDBCFA689B7896C930088F189E02DD1
S11303D080818064808381E090E0DF91CF911F91E0
S11303E00F9108951F920F920FB60F9211242F931D
S11303F08F939F93AF93BF93EF93FF93E091320159
S1130400F0913301808182FD14C0E2E2F1E0A6891B
S1130410B7892C91818D8F5F8F73928D891771F0BD
S1130420DF01E18DF0E0EE5DFE4F258F59968C9350
S113043005C0E0913801F09139018081FF91EF917D
S1130440BF91AF919F918F912F910F900FBE0F90FD
S11304501F9018951F920F920FB60F9211242F938D
S11304603F934F935F936F937F938F939F93AF9338
S1130470BF93EF93FF9382E291E00E945701FF91B3
S1130480EF91BF91AF919F918F917F916F915F9108
S11304904F913F912F910F900FBE0F901F90189581
S11304A082E291E00E941B0121E0892B09F420E003
S11304B0822F0895E2E2F1E01382128288EE93E043
S11304C0A0E0B0E084839583A683B7838FE091E0B6
S11304D09183808385EC90E09587848784EC90E019
S11304E09787868780EC90E0918B808B81EC90E0FD
S11304F0938B828B82EC90E0958B848B86EC90E0DE
S1130500978B868B118E128E138E148E08950895F8
S11305108F929F92AF92BF92CF92DF92EF92FF920F
S11305200F931F93CF93DF935C017B014C0182E017
S1130530880E911C6501E5E0CE0ED11C00E010E0B0
S1130540F40161914F014AE050E0C7010E949C030D
S1130550EC016EE2C7010E9412038C0F9D1F080F6D
S1130560191F8C149D0461F74AE050E0F501658180
S1130570C7010E949C03800F911FDF91CF911F91AF
S11305800F91FF90EF90DF90CF90BF90AF909F902E
S11305908F900895EFEBF1E08FE191E091838083F8
S11305A01282138214821582089508950E943705D9
S11305B00E94D5020E948E00C9E4D1E00E94E500A9
S11305C02097E1F30E944901F9CFCF92DF92EF9295
S11305D0FF920F931F93CF93DF9341155105B1F011
S11305E08C01E62EF72EEA01C12CD12CD7016D9196
S11305F07D01D801ED91FC910190F081E02DC801BD
S11306000995C80ED91E219789F702C0C12CD12C97
S1130610C601DF91CF911F910F91FF90EF90DF9072
S1130620CF900895DC01ED91FC910190F081E02DD3
S1130630099508954F925F926F927F929F92AF9225
S1130640BF92CF92DF92EF92FF920F931F93CF93BB
S1130650DF93CDB7DEB7A1970FB6F894DEBF0FBE18
S1130660CDBF5C016A017B01922E19A281E0821741
S113067020F00F2EFAE09F2EF02D8E010F5D1F4FFC
S1130680492C512C612C712CC701B601A301920194
S11306900E9406088C2D929E801911240150110984
S11306A08A3010F4805D01C0895CD8018C93C22E1D
S11306B0D32EE42EF52EC114D104E104F10421F764
S11306C00115110591F0F80101900020E9F7319727
S11306D0AF01401B510BD501ED91FC910280F381D8
S11306E0E02DB801C501099502C080E090E0A19613
S11306F00FB6F894DEBF0FBECDBFDF91CF911F912F
S11307000F91FF90EF90DF90CF90BF90AF909F90AC
S11307107F906F905F904F9008952115310549F4B3
S1130720DC01ED91FC910190F081E02D642F09959D
S113073008950E941A0308959A01462F50E060E03C
S113074070E00E948D030895813039F018F08230F2
S113075051F0089510926E000895EFE6F0E0808164
S11307608D7F80830895E0E7F0E080818D7F808332
S113077081E08093B000E1EBF0E08081887F8460C9
S113078080831092B3000895CF93C82F80910A01FB
S11307908C1308C0E8E6F0E0E4918E2F9FEF90936D
S11307A00A0101C08FEF0E94A40360E08C2F0E9415
S11307B0E005CF9108951F920F920FB60F92112466
S11307C02F933F934F935F936F937F938F939F9355
S11307D0AF93BF93EF93FF938091C8019091C901A8
S11307E0A091CA01B091CB01892B8A2B8B2B51F19B
S11307F08091C501E091C601F091C70190818927DC
S113080080838091C8019091C901A091CA01B091DF
S1130810CB01181619061A061B06C4F48091C801E8
S11308209091C901A091CA01B091CB010197A1098E
S1130830B1098093C8019093C901A093CA01B093F0
S1130840CB0104C080910A010E94C403FF91EF917F
S1130850BF91AF919F918F917F916F915F914F91D4
S11308603F912F910F900FBE0F901F9018951F92DC
S11308700F920FB60F9211242F933F934F935F93D0
S11308806F937F938F939F93AF93BF93EF93FF9354
S11308908091CC019091CD01892B29F0E091CC017C
S11308A0F091CD010995FF91EF91BF91AF919F9187
S11308B08F917F916F915F914F913F912F910F9005
S11308C00FBE0F901F9018951F920F920FB60F92A4
S11308D011242F933F934F935F936F937F938F9341
S11308E09F93AF93BF93EF93FF938091CE01909129
S11308F0CF01892B29F0E091CE01F091CF01099528
S1130900FF91EF91BF91AF919F918F917F916F91E3
S11309105F914F913F912F910F900FBE0F901F90B9
S113092018951F920F920FB60F9211242F933F9395
S11309308F939F93AF93BF938091D1019091D201F4
S1130940A091D301B091D4013091D00123E0230FC1
S11309502D3720F40196A11DB11D05C026E8230FF3
S11309600296A11DB11D2093D0018093D1019093D3
S1130970D201A093D301B093D4018091D501909179
S1130980D601A091D701B091D8010196A11DB11D46
S11309908093D5019093D601A093D701B093D80149
S11309A0BF91AF919F918F913F912F910F900FBE67
S11309B00F901F9018953FB7F8948091D5019091AE
S11309C0D601A091D701B091D80126B5A89B05C046
S11309D02F3F19F00196A11DB11D3FBFBA2FA92FBA
S11309E0982F8827820F911DA11DB11DBC01CD0137
S11309F0660F771F881F991F660F771F881F991F1F
S1130A000895CF92DF92EF92FF92CF93DF936B0121
S1130A107C010E94DB04EB01C114D104E104F10464
S1130A20A9F00E9487020E94DB046C1B7D0B683EC8
S1130A30734038F081E0C81AD108E108F108C851C0
S1130A40DC4FC114D104E104F10459F7DF91CF91D3
S1130A50FF90EF90DF90CF900895019739F0880FC1
S1130A60991F880F991F02970197F1F708957894B9
S1130A7084B5826084BD84B5816084BD85B582609F
S1130A8085BD85B5816085BDEEE6F0E0808181603D
S1130A908083E1E8F0E0108280818260808380813D
S1130AA081608083E0E8F0E0808181608083E1EB15
S1130AB0F0E0808184608083E0EBF0E080818160FD
S1130AC08083EAE7F0E080818460808380818260B3
S1130AD0808380818160808380818068808310929C
S1130AE0C1000895833069F028F48130B1F0823078
S1130AF0C1F008958730C9F08830E9F0843001F5F9
S1130B0006C0E0E8F0E080818F7780830895E0E814
S1130B10F0E080818F7D8083089584B58F7784BDD4
S1130B20089584B58F7D84BD0895E0EBF0E0808165
S1130B308F7780830895E0EBF0E080818F7D808360
S1130B400895CF93DF9390E0FC01E358FF4F249185
S1130B50FC01EF56FF4F8491882379F190E0880FD0
S1130B60991FFC01E754FF4FA591B491FC01E15595
S1130B70FF4FC591D49161110CC09FB7F8948C912B
S1130B80E22FE0958E238C932881E223E8839FBF94
S1130B9014C0623061F49FB7F8943C91822F809521
S1130BA083238C93E881E22BE8839FBF06C08FB731
S1130BB0F894EC91E22BEC938FBFDF91CF910895E1
S1130BC01F93CF93DF93282F30E0F901E759FF4FAC
S1130BD08491F901E358FF4F1491F901EF56FF4F47
S1130BE0C491CC23D1F0D62F81110E947205EC2F31
S1130BF0F0E0EE0FFF1FE155FF4FA591B4918FB7C1
S1130C00F894D11106C09C91E12FE095E923EC936F
S1130C1003C0EC91E12BEC938FBFDF91CF911F9137
S1130C2008958F929F92AF92BF92CF92DF92EF92EC
S1130C30FF920F931F93CF93DF9390E0FC01E3584F
S1130C40FF4F7491FC01EF56FF4F8491662311F01E
S1130C50672F01C060E069017A019FE0F922482F03
S1130C6050E0440F551F4B555F4F80E090E0DC018E
S1130C700EC08C019D010F5F1F4F2F4F3F4F8C15EE
S1130C809D05AE05BF0509F46FC0D901C801FA017D
S1130C90C591D49138813723631759F30EC08C0161
S1130CA09D010F5F1F4F2F4F3F4F8C159D05AE05C4
S1130CB0BF0509F45DC0D901C801FA01C591D491F9
S1130CC0388137236313EBCFFA01C591D49128817E
S1130CD02723621322C0C816D906EA06FB0609F4C4
S1130CE04BC000E010E098010CC04C015D01800E87
S1130CF0911EA21EB31EC814D904EA04FB0409F40D
S1130D003FC00F5F1F4F2F4F3F4FFA01C591D49142
S1130D10E881E7236E1749F303C000E010E098016F
S1130D20D901C801880F991FAA1FBB1F800F911FEB
S1130D30A21FB31F880F991FAA1FBB1F880F991FDB
S1130D40AA1FBB1F880F991FAA1FBB1F4096A11D76
S1130D50B11DBC01CD01689413F8969587957795DC
S1130D6067951694D1F70FC060E070E0CB010BC01B
S1130D7060E070E0CB0107C060E070E0CB0103C02D
S1130D8060E070E0CB01DF91CF911F910F91FF9054
S1130D90EF90DF90CF90BF90AF909F908F90089589
S1130DA00E94E4060C94CC070E94C50758F00E94E8
S1130DB0BE0740F029F45F3F29F00C94B5075111A8
S1130DC00C9400080C94BB070E94DD0768F3992378
S1130DD0B1F3552391F3951B550BBB27AA27621733
S1130DE07307840738F09F5F5F4F220F331F441F40
S1130DF0AA1FA9F335D00E2E3AF0E0E832D0915074
S1130E005040E695001CCAF72BD0FE2F29D0660F60
S1130E10771F881FBB1F261737074807AB07B0E8A3
S1130E2009F0BB0B802DBF01FF2793585F4F3AF0A9
S1130E309E3F510578F00C94B5070C9400085F3F71
S1130E40E4F3983ED4F3869577956795B795F7952F
S1130E509F5FC9F7880F911D9695879597F9089517
S1130E60E1E0660F771F881FBB1F621773078407B3
S1130E70BA0720F0621B730B840BBA0BEE1F88F7C2
S1130E80E09508950E9449076894B1110C940008F4
S1130E9008950E94E50788F09F5798F0B92F992785
S1130EA0B751B0F0E1F0660F771F881F991F1AF051
S1130EB0BA95C9F714C0B13091F00E94FF07B1E0B0
S1130EC008950C94FF07672F782F8827B85F39F0AF
S1130ED0B93FCCF3869577956795B395D9F73EF4EA
S1130EE090958095709561957F4F8F4F9F4F089592
S1130EF0E89409C097FB3EF49095809570956195B0
S1130F007F4F8F4F9F4F9923A9F0F92F96E9BB2765
S1130F109395F695879577956795B795F111F8CFE1
S1130F20FAF4BB0F11F460FF1BC06F5F7F4F8F4F4C
S1130F309F4F16C0882311F096E911C0772321F042
S1130F409EE8872F762F05C0662371F096E8862FDA
S1130F5070E060E02AF09A95660F771F881FDAF731
S1130F60880F9695879597F9089597F99F6780E874
S1130F7070E060E008959FEF80EC089500240A94E7
S1130F801616170618060906089500240A94121660
S1130F901306140605060895092E0394000C11F493
S1130FA0882352F0BB0F40F4BF2B11F460FF04C040
S1130FB06F5F7F4F8F4F9F4F089557FD9058440F99
S1130FC0551F59F05F3F71F04795880F97FB991FA4
S1130FD061F09F3F79F08795089512161306140661
S1130FE0551FF2CF4695F1DF08C0161617061806EE
S1130FF0991FF1CF86957105610508940895E894C9
S1131000BB2766277727CB0197F90895A1E21A2E0B
S1131010AA1BBB1BFD010DC0AA1FBB1FEE1FFF1F98
S1131020A217B307E407F50720F0A21BB30BE40BE8
S1131030F50B661F771F881F991F1A9469F760952F
S11310407095809590959B01AC01BD01CF010895E9
S1131050EE0FFF1F0590F491E02D0994F894FFCF53
S11310600A000500080007000600FF00000000A3B6
S113107001E5021B01350127018101000000008800
S1051080020068
S9030000FC
