:100000000C9464000C9443040C9470040C948C00C5
:100010000C948C000C948C000C948C000C94E703D2
:100020000C948C000C948C000C948C000C948C0020
:100030000C948C000C948C000C948C000C948C0010
:100040000C949D040C948C000C94FE010C943602CC
:100050000C948C000C948C000C948C000C948C00F0
:100060000C948C000C948C0002000000080002012B
:10007000000003040700000000000000000102046B
:10008000081020408001020408102001020408101A
:100090002004040404040404040202020202020311
:1000A00003030303030000000023002600290000CF
:1000B000000000250028002B00000000002400277D
:1000C000002A00006602D60211241FBECFEFD8E03E
:1000D000DEBFCDBF11E0A0E0B1E0E8E7F0E102C093
:1000E00005900D92AC31B107D9F721E0ACE1B1E058
:1000F00001C01D92A33DB207E1F710E0C4E6D0E0D5
:1001000004C02197FE010E943408C236D107C9F706
:100110000E94E2020C943A080C940000CF93DF9303
:10012000C2E0D1E061E088810E94AD0560E0888195
:100130000E94EC05DF91CF910895CF93C82F61E025
:100140000E94AD0560E08C2F0E94EC0585E090E0F8
:100150000E94390561E08C2F0E94EC0584E190E05B
:100160000E94390560E08C2F0E94EC05CF91089524
:10017000CF93C82F0E949D0060E08C2F0E94AD0598
:1001800020E432E44FE050E061E08C2F0E941D0635
:10019000992324F46F5F7F4F8F4F9F4F95958795DD
:1001A000779567950E9486072DEC3CEC48EE51E46C
:1001B0000E94DC060E944E07CF9108950F931F9373
:1001C00088E090E00E94B800209100013091010188
:1001D0008901330F220B330B6017710782079307D6
:1001E00014F18AE090E00E94B80020910001309163
:1001F00001018901330F220B330B6017710782074E
:1002000093078CF08BE090E00E94B80020910001F1
:10021000309101018901330F220B330B60177107F5
:100220008207930734F461E0809102010E94EC059B
:1002300005C060E0809102010E94EC0564E670E078
:1002400080E090E00E940D051F910F910895FC0140
:10025000918D228D892F90E0805C9F4F821B9109A8
:100260008F7399270895FC01918D828D981731F035
:10027000828DE80FF11D858D90E008958FEF9FEF3F
:100280000895FC01918D828D981761F0828DDF01B8
:10029000A80FB11D5D968C91928D9F5F9F73928F79
:1002A00090E008958FEF9FEF08958CE592E0892B01
:1002B00049F080E090E0892B29F00E945C028111D6
:1002C0000E9400000895FC01848DDF01A80FB11D7C
:1002D000A35ABF4F8C91248D30E02F5F3F4F2F7377
:1002E0003078332334F421503109206C3F6F2F5F75
:1002F0003F4F248FA689B7898C93A089B1898C91AF
:1003000080648C93938D848D981306C00288F38942
:10031000E02D80818F7D80830895CF93DF93EC0162
:10032000888D81110FC018C00FB607FC0DC09081D9
:1003300095FF0AC0A889B9898C9185FF05C0CE01B7
:100340000E946301EA89FB89908195FDEDCFA88920
:10035000B9898C9186FFE8CFDF91CF9108950F93F3
:100360001F93CF93DF93FC01938D848D981324C04A
:10037000A089B1898C9185FD31C01EC00FB607FCE4
:1003800008C0E889F989808185FF03C0CE010E94F9
:1003900063019C8D091791F38B8DFE01E80FF11D10
:1003A000E35AFF4F10830B8FEA89FB8980818062BB
:1003B000808381E0888F1BC0238D30E02F5F3F4F0B
:1003C0002F733078332334F421503109206C3F6F80
:1003D0002F5F3F4F162FEF01022FDBCFA689B78982
:1003E0006C930088F189E02D80818064808381E0B6
:1003F00090E0DF91CF911F910F9108951F920F927E
:100400000FB60F9211242F938F939F93AF93BF93A7
:10041000EF93FF93E0912C01F0912D01808182FDFB
:1004200014C0ECE1F1E0A689B7892C91818D8F5F32
:100430008F73928D891771F0DF01E18DF0E0E45E3A
:10044000FE4F258F59968C9305C0E0913201F091B3
:1004500033018081FF91EF91BF91AF919F918F9177
:100460002F910F900FBE0F901F9018951F920F9213
:100470000FB60F9211242F933F934F935F936F9377
:100480007F938F939F93AF93BF93EF93FF938CE1F1
:1004900091E00E946301FF91EF91BF91AF919F9115
:1004A0008F917F916F915F914F913F912F910F901D
:1004B0000FBE0F901F9018958CE191E00E942701CC
:1004C00021E0892B09F420E0822F0895ECE1F1E08E
:1004D0001382128288EE93E0A0E0B0E084839583DB
:1004E000A683B78389E091E09183808385EC90E0D7
:1004F0009587848784EC90E09787868780EC90E0EE
:10050000918B808B81EC90E0938B828B82EC90E0DE
:10051000958B848B86EC90E0978B868B118E128E58
:10052000138E148E089508958F929F92AF92BF926A
:10053000CF92DF92EF92FF920F931F93CF93DF93AF
:100540005C017B014C0182E0880E911C6501E5E0B5
:10055000CE0ED11C00E010E0F40161914F014AE0A1
:1005600050E0C7010E94A803EC016EE2C7010E949F
:100570001E038C0F9D1F080F191F8C149D0461F71B
:100580004AE050E0F5016581C7010E94A803800F91
:10059000911FDF91CF911F910F91FF90EF90DF900E
:1005A000CF90BF90AF909F908F900895E9EBF1E0CE
:1005B00089E191E0918380831282138214821582F3
:1005C000089508950E9443050E94E1020E948E0052
:1005D000C5E5D1E00E94DE002097E1F30E945501BD
:1005E000F9CFCF92DF92EF92FF920F931F93CF93A9
:1005F000DF9341155105B1F08C01E62EF72EEA018B
:10060000C12CD12CD7016D917D01D801ED91FC91C8
:100610000190F081E02DC8010995C80ED91E2197DF
:1006200089F702C0C12CD12CC601DF91CF911F9157
:100630000F91FF90EF90DF90CF900895DC01ED9146
:10064000FC910190F081E02D099508954F925F9201
:100650006F927F929F92AF92BF92CF92DF92EF9272
:10066000FF920F931F93CF93DF93CDB7DEB7A19780
:100670000FB6F894DEBF0FBECDBF5C016A017B01EF
:10068000922E19A281E0821720F00F2EFAE09F2E01
:10069000F02D8E010F5D1F4F492C512C612C712CB8
:1006A000C701B601A30192010E9412088C2D929EEF
:1006B00080191124015011098A3010F4805D01C0A5
:1006C000895CD8018C93C22ED32EE42EF52EC11452
:1006D000D104E104F10421F70115110591F0F801AD
:1006E00001900020E9F73197AF01401B510BD50174
:1006F000ED91FC910280F381E02DB801C5010995CF
:1007000002C080E090E0A1960FB6F894DEBF0FBE65
:10071000CDBFDF91CF911F910F91FF90EF90DF90B0
:10072000CF90BF90AF909F907F906F905F904F90D1
:1007300008952115310549F4DC01ED91FC910190FA
:10074000F081E02D642F099508950E9426030895F5
:100750009A01462F50E060E070E00E9499030895EE
:10076000813039F018F0823051F0089510926E0007
:100770000895EFE6F0E080818D7F80830895E0E7C3
:10078000F0E080818D7F808381E08093B000E1EB99
:10079000F0E08081887F846080831092B3000895A8
:1007A000CF93C82F809104018C1308C0E8E6F0E0D5
:1007B000E4918E2F9FEF9093040101C08FEF0E9470
:1007C000B00360E08C2F0E94EC05CF9108951F923A
:1007D0000F920FB60F9211242F933F934F935F9375
:1007E0006F937F938F939F93AF93BF93EF93FF93F9
:1007F0008091C2019091C301A091C401B091C50143
:10080000892B8A2B8B2B51F18091BF01E091C00184
:10081000F091C1019081892780838091C2019091DC
:10082000C301A091C401B091C501181619061A069A
:100830001B06C4F48091C2019091C301A091C40130
:10084000B091C5010197A109B1098093C2019093AC
:10085000C301A093C401B093C50104C080910401F9
:100860000E94D003FF91EF91BF91AF919F918F9123
:100870007F916F915F914F913F912F910F900FBE9C
:100880000F901F9018951F920F920FB60F92112480
:100890002F933F934F935F936F937F938F939F9388
:1008A000AF93BF93EF93FF938091C6019091C701DF
:1008B000892B29F0E091C601F091C7010995FF91BC
:1008C000EF91BF91AF919F918F917F916F915F91C8
:1008D0004F913F912F910F900FBE0F901F90189541
:1008E0001F920F920FB60F9211242F933F934F93A5
:1008F0005F936F937F938F939F93AF93BF93EF9388
:10090000FF938091C8019091C901892B29F0E09152
:10091000C801F091C9010995FF91EF91BF91AF9185
:100920009F918F917F916F915F914F913F912F9107
:100930000F900FBE0F901F9018951F920F920FB639
:100940000F9211242F933F938F939F93AF93BF9355
:100950008091CB019091CC01A091CD01B091CE01BD
:100960003091CA0123E0230F2D3720F40196A11DF9
:10097000B11D05C026E8230F0296A11DB11D2093CD
:10098000CA018093CB019093CC01A093CD01B09389
:10099000CE018091CF019091D001A091D101B09171
:1009A000D2010196A11DB11D8093CF019093D0017A
:1009B000A093D101B093D201BF91AF919F918F913C
:1009C0003F912F910F900FBE0F901F9018953FB73A
:1009D000F8948091CF019091D001A091D101B09174
:1009E000D20126B5A89B05C02F3F19F00196A11D85
:1009F000B11D3FBFBA2FA92F982F8827820F911DB5
:100A0000A11DB11DBC01CD01660F771F881F991F65
:100A1000660F771F881F991F0895CF92DF92EF927C
:100A2000FF92CF93DF936B017C010E94E704EB01FF
:100A3000C114D104E104F104A9F00E9493020E94C0
:100A4000E7046C1B7D0B683E734038F081E0C81AE8
:100A5000D108E108F108C851DC4FC114D104E10408
:100A6000F10459F7DF91CF91FF90EF90DF90CF9095
:100A70000895019739F0880F991F880F991F0297E1
:100A80000197F1F70895789484B5826084BD84B5A8
:100A9000816084BD85B5826085BD85B5816085BD79
:100AA000EEE6F0E0808181608083E1E8F0E0108292
:100AB000808182608083808181608083E0E8F0E0D3
:100AC000808181608083E1EBF0E0808184608083BD
:100AD000E0EBF0E0808181608083EAE7F0E08081F4
:100AE0008460808380818260808380818160808354
:100AF0008081806880831092C1000895833069F0FE
:100B000028F48130B1F08230C1F008958730C9F007
:100B10008830E9F0843001F506C0E0E8F0E080813B
:100B20008F7780830895E0E8F0E080818F7D808377
:100B3000089584B58F7784BD089584B58F7D84BD75
:100B40000895E0EBF0E080818F7780830895E0EBFB
:100B5000F0E080818F7D80830895CF93DF9390E0D4
:100B6000FC01E358FF4F2491FC01EF56FF4F8491A5
:100B7000882379F190E0880F991FFC01E754FF4F1B
:100B8000A591B491FC01E155FF4FC591D49161113C
:100B90000CC09FB7F8948C91E22FE0958E238C9334
:100BA0002881E223E8839FBF14C0623061F49FB7BD
:100BB000F8943C91822F809583238C93E881E22BDB
:100BC000E8839FBF06C08FB7F894EC91E22BEC93BB
:100BD0008FBFDF91CF9108951F93CF93DF93282F7D
:100BE00030E0F901E759FF4F8491F901E358FF4FD5
:100BF0001491F901EF56FF4FC491CC23D1F0D62FB9
:100C000081110E947E05EC2FF0E0EE0FFF1FE155F1
:100C1000FF4FA591B4918FB7F894D11106C09C9164
:100C2000E12FE095E923EC9303C0EC91E12BEC93E9
:100C30008FBFDF91CF911F9108958F929F92AF92B6
:100C4000BF92CF92DF92EF92FF920F931F93CF93B9
:100C5000DF9390E0FC01E358FF4F7491FC01EF56E5
:100C6000FF4F8491662311F0672F01C060E0690196
:100C70007A019FE0F922482F50E0440F551F4B5551
:100C80005F4F80E090E0DC010EC08C019D010F5FA2
:100C90001F4F2F4F3F4F8C159D05AE05BF0509F423
:100CA0006FC0D901C801FA01C591D49138813723A9
:100CB000631759F30EC08C019D010F5F1F4F2F4F1B
:100CC0003F4F8C159D05AE05BF0509F45DC0D901E8
:100CD000C801FA01C591D491388137236313EBCF52
:100CE000FA01C591D49128812723621322C0C81626
:100CF000D906EA06FB0609F44BC000E010E09801B3
:100D00000CC04C015D01800E911EA21EB31EC814C2
:100D1000D904EA04FB0409F43FC00F5F1F4F2F4FB3
:100D20003F4FFA01C591D491E881E7236E1749F34B
:100D300003C000E010E09801D901C801880F991F95
:100D4000AA1FBB1F800F911FA21FB31F880F991FDF
:100D5000AA1FBB1F880F991FAA1FBB1F880F991FAF
:100D6000AA1FBB1F4096A11DB11DBC01CD016894F7
:100D700013F896958795779567951694D1F70FC0D8
:100D800060E070E0CB010BC060E070E0CB0107C019
:100D900060E070E0CB0103C060E070E0CB01DF9168
:100DA000CF911F910F91FF90EF90DF90CF90BF9068
:100DB000AF909F908F9008950E94F0060C94D807F2
:100DC0000E94D10758F00E94CA0740F029F45F3F03
:100DD00029F00C94C10751110C940C080C94C7070E
:100DE0000E94E90768F39923B1F3552391F3951B0A
:100DF000550BBB27AA2762177307840738F09F5F3C
:100E00005F4F220F331F441FAA1FA9F335D00E2EA8
:100E10003AF0E0E832D091505040E695001CCAF715
:100E20002BD0FE2F29D0660F771F881FBB1F2617D8
:100E300037074807AB07B0E809F0BB0B802DBF01AF
:100E4000FF2793585F4F3AF09E3F510578F00C947E
:100E5000C1070C940C085F3FE4F3983ED4F38695E9
:100E600077956795B795F7959F5FC9F7880F911D9F
:100E70009695879597F90895E1E0660F771F881F8B
:100E8000BB1F621773078407BA0720F0621B730B3E
:100E9000840BBA0BEE1F88F7E09508950E94550762
:100EA0006894B1110C940C0808950E94F10788F021
:100EB0009F5798F0B92F9927B751B0F0E1F0660F1E
:100EC000771F881F991F1AF0BA95C9F714C0B1305F
:100ED00091F00E940B08B1E008950C940B08672F65
:100EE000782F8827B85F39F0B93FCCF3869577958E
:100EF0006795B395D9F73EF4909580957095619577
:100F00007F4F8F4F9F4F0895E89409C097FB3EF4A1
:100F100090958095709561957F4F8F4F9F4F992346
:100F2000A9F0F92F96E9BB279395F69587957795C4
:100F30006795B795F111F8CFFAF4BB0F11F460FF84
:100F40001BC06F5F7F4F8F4F9F4F16C0882311F0DC
:100F500096E911C0772321F09EE8872F762F05C0F0
:100F6000662371F096E8862F70E060E02AF09A958B
:100F7000660F771F881FDAF7880F9695879597F980
:100F8000089597F99F6780E870E060E008959FEF0B
:100F900080EC089500240A94161617061806090610
:100FA000089500240A9412161306140605060895DF
:100FB000092E0394000C11F4882352F0BB0F40F467
:100FC000BF2B11F460FF04C06F5F7F4F8F4F9F4FA7
:100FD000089557FD9058440F551F59F05F3F71F029
:100FE0004795880F97FB991F61F09F3F79F0879590
:100FF0000895121613061406551FF2CF4695F1DF19
:1010000008C0161617061806991FF1CF86957105A8
:10101000610508940895E894BB2766277727CB01DC
:1010200097F90895A1E21A2EAA1BBB1BFD010DC062
:10103000AA1FBB1FEE1FFF1FA217B307E407F50788
:1010400020F0A21BB30BE40BF50B661F771F881F64
:10105000991F1A9469F760957095809590959B01FA
:10106000AC01BD01CF010895EE0FFF1F0590F49173
:08107000E02D0994F894FFCF74
:101078001E000900FF00000000AF01F10227014136
:0C1088000133018D010000000094020003
:00000001FF
